{
  "contractName": "Cloth",
  "abi": [
    {
      "constant": true,
      "inputs": [],
      "name": "owner",
      "outputs": [
        {
          "name": "",
          "type": "address"
        }
      ],
      "payable": false,
      "stateMutability": "view",
      "type": "function"
    },
    {
      "inputs": [],
      "payable": false,
      "stateMutability": "nonpayable",
      "type": "constructor"
    },
    {
      "constant": false,
      "inputs": [
        {
          "name": "count",
          "type": "uint256"
        },
        {
          "name": "dateManufacture",
          "type": "bytes8"
        },
        {
          "name": "dateExpiry",
          "type": "bytes8"
        }
      ],
      "name": "addItem",
      "outputs": [],
      "payable": false,
      "stateMutability": "nonpayable",
      "type": "function"
    },
    {
      "constant": false,
      "inputs": [
        {
          "name": "itemId",
          "type": "uint256"
        }
      ],
      "name": "buy",
      "outputs": [
        {
          "name": "",
          "type": "uint256"
        }
      ],
      "payable": false,
      "stateMutability": "nonpayable",
      "type": "function"
    },
    {
      "constant": true,
      "inputs": [
        {
          "name": "id",
          "type": "uint256"
        }
      ],
      "name": "getCloth",
      "outputs": [
        {
          "name": "count",
          "type": "uint256"
        },
        {
          "name": "",
          "type": "bytes8"
        },
        {
          "name": "",
          "type": "bytes8"
        }
      ],
      "payable": false,
      "stateMutability": "view",
      "type": "function"
    }
  ],
  "bytecode": "0x608060405234801561001057600080fd5b50336000806101000a81548173ffffffffffffffffffffffffffffffffffffffff021916908373ffffffffffffffffffffffffffffffffffffffff16021790555061062e806100606000396000f300608060405260043610610062576000357c0100000000000000000000000000000000000000000000000000000000900463ffffffff168063443cf3fa146100675780638da5cb5b14610122578063d8b27ac714610179578063d96a094a146101f0575b600080fd5b34801561007357600080fd5b5061009260048036038101908080359060200190929190505050610231565b604051808481526020018377ffffffffffffffffffffffffffffffffffffffffffffffff191677ffffffffffffffffffffffffffffffffffffffffffffffff191681526020018277ffffffffffffffffffffffffffffffffffffffffffffffff191677ffffffffffffffffffffffffffffffffffffffffffffffff19168152602001935050505060405180910390f35b34801561012e57600080fd5b50610137610350565b604051808273ffffffffffffffffffffffffffffffffffffffff1673ffffffffffffffffffffffffffffffffffffffff16815260200191505060405180910390f35b34801561018557600080fd5b506101ee60048036038101908080359060200190929190803577ffffffffffffffffffffffffffffffffffffffffffffffff19169060200190929190803577ffffffffffffffffffffffffffffffffffffffffffffffff19169060200190929190505050610375565b005b3480156101fc57600080fd5b5061021b600480360381019080803590602001909291905050506104e9565b6040518082815260200191505060405180910390f35b600080600061023e6105aa565b6001600086815260200190815260200160002060606040519081016040529081600082015481526020016001820160009054906101000a900478010000000000000000000000000000000000000000000000000277ffffffffffffffffffffffffffffffffffffffffffffffff191677ffffffffffffffffffffffffffffffffffffffffffffffff191681526020016001820160089054906101000a900478010000000000000000000000000000000000000000000000000277ffffffffffffffffffffffffffffffffffffffffffffffff191677ffffffffffffffffffffffffffffffffffffffffffffffff1916815250509050806000015181602001518260400151935093509350509193909250565b6000809054906101000a900473ffffffffffffffffffffffffffffffffffffffff1681565b61037d6105aa565b6000809054906101000a900473ffffffffffffffffffffffffffffffffffffffff1673ffffffffffffffffffffffffffffffffffffffff163373ffffffffffffffffffffffffffffffffffffffff161415156103d857600080fd5b6060604051908101604052808581526020018477ffffffffffffffffffffffffffffffffffffffffffffffff191681526020018377ffffffffffffffffffffffffffffffffffffffffffffffff19168152509050806001600060025481526020019081526020016000206000820151816000015560208201518160010160006101000a81548167ffffffffffffffff021916908378010000000000000000000000000000000000000000000000009004021790555060408201518160010160086101000a81548167ffffffffffffffff021916908378010000000000000000000000000000000000000000000000009004021790555090505060026000815480929190600101919050555050505050565b60008082101580156104fc575060025482105b801561051e575060006001600084815260200190815260200160002060000154115b151561052957600080fd5b336003600084815260200190815260200160002060006101000a81548173ffffffffffffffffffffffffffffffffffffffff021916908373ffffffffffffffffffffffffffffffffffffffff160217905550600160008381526020019081526020016000206000016000815480929190600190039190505550819050919050565b60606040519081016040528060008152602001600077ffffffffffffffffffffffffffffffffffffffffffffffff19168152602001600077ffffffffffffffffffffffffffffffffffffffffffffffff1916815250905600a165627a7a72305820fe174b02ffb857863159892cdf366ba7a92e32c01508fb18b36beb2646cc81200029",
  "source": "pragma solidity ^0.4.24;\r\n\r\ncontract Cloth {\r\n    //Address of manager\r\n    address public owner;\r\n\r\n    struct Item {\r\n        uint count;\r\n        bytes8 dateManufacture;\r\n        bytes8 dateExpiry;\r\n    }\r\n\r\n    //Mapping from id item to detail infor\r\n    mapping (uint => Item) items;\r\n    uint itemCount;\r\n    //Mapping from item index to buyer\r\n    mapping (uint => address) buyers;\r\n\r\n\r\n    //contructor\r\n    constructor() public {\r\n        owner = msg.sender;\r\n    }\r\n\r\n\r\n    //Add item (Manager mode)\r\n    function addItem(uint count, bytes8 dateManufacture, bytes8 dateExpiry) public onlyByManager {\r\n        Item memory item = Item(count, dateManufacture, dateExpiry);\r\n        items[itemCount] = item;\r\n\r\n        //Icrease count variable\r\n        itemCount++;\r\n    }\r\n\r\n    modifier onlyByManager() {\r\n        require(msg.sender == owner);\r\n        _;\r\n    }\r\n\r\n    //Buy function for user mode\r\n    function buy(uint itemId) public returns(uint) {\r\n\r\n        require(itemId >= 0 && itemId < itemCount && items[itemId].count > 0);\r\n        //Set buyer to\r\n        buyers[itemId] = msg.sender;\r\n\r\n        //Set count for item\r\n        items[itemId].count--;\r\n\r\n        return itemId;\r\n    }\r\n\r\n    //Get infor of clothes from it's id\r\n    function getCloth(uint id) public view returns (uint count, bytes8, bytes8){\r\n        Item memory item = items[id];\r\n\r\n        return (item.count, item.dateManufacture, item.dateExpiry);\r\n    }\r\n}\r\n",
  "sourcePath": "/project/bk/ethe-demo/contracts/Cloth.sol",
  "compiler": {
    "name": "solc",
    "version": "0.4.24+commit.e67f0147.Emscripten.clang"
  },
  "schemaVersion": "2.0.1",
  "updatedAt": "2018-10-17T11:27:28.015Z"
}