{
  "contractName": "Shop",
  "abi": [
    {
      "constant": true,
      "inputs": [
        {
          "name": "",
          "type": "uint256"
        }
      ],
      "name": "buyers",
      "outputs": [
        {
          "name": "",
          "type": "address"
        }
      ],
      "payable": false,
      "stateMutability": "view",
      "type": "function"
    },
    {
      "constant": false,
      "inputs": [
        {
          "name": "clothId",
          "type": "uint256"
        }
      ],
      "name": "buy",
      "outputs": [
        {
          "name": "",
          "type": "uint256"
        }
      ],
      "payable": false,
      "stateMutability": "nonpayable",
      "type": "function"
    },
    {
      "constant": true,
      "inputs": [],
      "name": "getBuyers",
      "outputs": [
        {
          "name": "",
          "type": "address[16]"
        }
      ],
      "payable": false,
      "stateMutability": "view",
      "type": "function"
    }
  ],
  "bytecode": "0x608060405234801561001057600080fd5b506102d8806100206000396000f300608060405260043610610057576000357c0100000000000000000000000000000000000000000000000000000000900463ffffffff168063d96a094a1461005c578063f2aa82181461009d578063f64bfaba1461010a575b600080fd5b34801561006857600080fd5b506100876004803603810190808035906020019092919050505061015d565b6040518082815260200191505060405180910390f35b3480156100a957600080fd5b506100c8600480360381019080803590602001909291905050506101d2565b604051808273ffffffffffffffffffffffffffffffffffffffff1673ffffffffffffffffffffffffffffffffffffffff16815260200191505060405180910390f35b34801561011657600080fd5b5061011f610207565b6040518082601060200280838360005b8381101561014a57808201518184015260208101905061012f565b5050505090500191505060405180910390f35b60008082101580156101705750600f8211155b151561017b57600080fd5b3360008360108110151561018b57fe5b0160006101000a81548173ffffffffffffffffffffffffffffffffffffffff021916908373ffffffffffffffffffffffffffffffffffffffff160217905550819050919050565b6000816010811015156101e157fe5b016000915054906101000a900473ffffffffffffffffffffffffffffffffffffffff1681565b61020f610288565b600060108060200260405190810160405280929190826010801561027e576020028201915b8160009054906101000a900473ffffffffffffffffffffffffffffffffffffffff1673ffffffffffffffffffffffffffffffffffffffff1681526020019060010190808311610234575b5050505050905090565b610200604051908101604052806010906020820280388339808201915050905050905600a165627a7a72305820ffcd6214db77ec6129f95c1523c6c1884d228a2db72da87a584ab389e3ed98160029",
  "source": "pragma solidity ^0.4.17;\n\ncontract Shop {\n  address[16] public buyers;\n\n  // Buy\n  function buy(uint clothId) public returns (uint) {\n    require(clothId >= 0 && clothId <= 15);\n\n    buyers[clothId] = msg.sender;\n\n    return clothId;\n  }\n\n  // Retrieving the buyers\n  function getBuyers() public view returns (address[16]) {\n    return buyers;\n  }\n}\n",
  "sourcePath": "/project/bk/ethe-demo/contracts/Shop.sol",
  "compiler": {
    "name": "solc",
    "version": "0.4.24+commit.e67f0147.Emscripten.clang"
  },
  "schemaVersion": "2.0.1",
  "updatedAt": "2018-10-23T02:11:00.908Z"
}